{
  "_format": "hh-sol-artifact-1",
  "contractName": "Posts",
  "sourceName": "contracts/Posts.sol",
  "abi": [
    {
      "inputs": [
        {
          "internalType": "string",
          "name": "baseUri_",
          "type": "string"
        }
      ],
      "stateMutability": "nonpayable",
      "type": "constructor"
    },
    {
      "anonymous": false,
      "inputs": [
        {
          "indexed": true,
          "internalType": "address",
          "name": "account",
          "type": "address"
        },
        {
          "indexed": true,
          "internalType": "address",
          "name": "operator",
          "type": "address"
        },
        {
          "indexed": false,
          "internalType": "bool",
          "name": "approved",
          "type": "bool"
        }
      ],
      "name": "ApprovalForAll",
      "type": "event"
    },
    {
      "anonymous": false,
      "inputs": [
        {
          "indexed": true,
          "internalType": "address",
          "name": "requestor",
          "type": "address"
        },
        {
          "indexed": false,
          "internalType": "string",
          "name": "id",
          "type": "string"
        },
        {
          "indexed": false,
          "internalType": "address",
          "name": "paymentToken",
          "type": "address"
        }
      ],
      "name": "MintRequest",
      "type": "event"
    },
    {
      "anonymous": false,
      "inputs": [
        {
          "indexed": true,
          "internalType": "address",
          "name": "previousOwner",
          "type": "address"
        },
        {
          "indexed": true,
          "internalType": "address",
          "name": "newOwner",
          "type": "address"
        }
      ],
      "name": "OwnershipTransferred",
      "type": "event"
    },
    {
      "anonymous": false,
      "inputs": [
        {
          "indexed": true,
          "internalType": "address",
          "name": "operator",
          "type": "address"
        },
        {
          "indexed": true,
          "internalType": "address",
          "name": "from",
          "type": "address"
        },
        {
          "indexed": true,
          "internalType": "address",
          "name": "to",
          "type": "address"
        },
        {
          "indexed": false,
          "internalType": "uint256[]",
          "name": "ids",
          "type": "uint256[]"
        },
        {
          "indexed": false,
          "internalType": "uint256[]",
          "name": "values",
          "type": "uint256[]"
        }
      ],
      "name": "TransferBatch",
      "type": "event"
    },
    {
      "anonymous": false,
      "inputs": [
        {
          "indexed": true,
          "internalType": "address",
          "name": "operator",
          "type": "address"
        },
        {
          "indexed": true,
          "internalType": "address",
          "name": "from",
          "type": "address"
        },
        {
          "indexed": true,
          "internalType": "address",
          "name": "to",
          "type": "address"
        },
        {
          "indexed": false,
          "internalType": "uint256",
          "name": "id",
          "type": "uint256"
        },
        {
          "indexed": false,
          "internalType": "uint256",
          "name": "value",
          "type": "uint256"
        }
      ],
      "name": "TransferSingle",
      "type": "event"
    },
    {
      "anonymous": false,
      "inputs": [
        {
          "indexed": false,
          "internalType": "string",
          "name": "value",
          "type": "string"
        },
        {
          "indexed": true,
          "internalType": "uint256",
          "name": "id",
          "type": "uint256"
        }
      ],
      "name": "URI",
      "type": "event"
    },
    {
      "inputs": [
        {
          "internalType": "address",
          "name": "account",
          "type": "address"
        },
        {
          "internalType": "uint256",
          "name": "id",
          "type": "uint256"
        }
      ],
      "name": "balanceOf",
      "outputs": [
        {
          "internalType": "uint256",
          "name": "",
          "type": "uint256"
        }
      ],
      "stateMutability": "view",
      "type": "function"
    },
    {
      "inputs": [
        {
          "internalType": "address[]",
          "name": "accounts",
          "type": "address[]"
        },
        {
          "internalType": "uint256[]",
          "name": "ids",
          "type": "uint256[]"
        }
      ],
      "name": "balanceOfBatch",
      "outputs": [
        {
          "internalType": "uint256[]",
          "name": "",
          "type": "uint256[]"
        }
      ],
      "stateMutability": "view",
      "type": "function"
    },
    {
      "inputs": [
        {
          "components": [
            {
              "internalType": "string",
              "name": "id",
              "type": "string"
            },
            {
              "internalType": "string",
              "name": "ipns",
              "type": "string"
            },
            {
              "internalType": "address",
              "name": "paymentToken",
              "type": "address"
            },
            {
              "internalType": "address",
              "name": "receiver",
              "type": "address"
            },
            {
              "internalType": "address",
              "name": "seller",
              "type": "address"
            },
            {
              "internalType": "uint256",
              "name": "amountToSeller",
              "type": "uint256"
            },
            {
              "internalType": "address",
              "name": "feesCollector",
              "type": "address"
            },
            {
              "internalType": "uint256",
              "name": "amountToFeesCollector",
              "type": "uint256"
            }
          ],
          "internalType": "struct Posts.MintParams[]",
          "name": "params",
          "type": "tuple[]"
        }
      ],
      "name": "batchMint",
      "outputs": [],
      "stateMutability": "nonpayable",
      "type": "function"
    },
    {
      "inputs": [
        {
          "internalType": "address",
          "name": "account",
          "type": "address"
        },
        {
          "internalType": "address",
          "name": "operator",
          "type": "address"
        }
      ],
      "name": "isApprovedForAll",
      "outputs": [
        {
          "internalType": "bool",
          "name": "",
          "type": "bool"
        }
      ],
      "stateMutability": "view",
      "type": "function"
    },
    {
      "inputs": [
        {
          "components": [
            {
              "internalType": "string",
              "name": "id",
              "type": "string"
            },
            {
              "internalType": "string",
              "name": "ipns",
              "type": "string"
            },
            {
              "internalType": "address",
              "name": "paymentToken",
              "type": "address"
            },
            {
              "internalType": "address",
              "name": "receiver",
              "type": "address"
            },
            {
              "internalType": "address",
              "name": "seller",
              "type": "address"
            },
            {
              "internalType": "uint256",
              "name": "amountToSeller",
              "type": "uint256"
            },
            {
              "internalType": "address",
              "name": "feesCollector",
              "type": "address"
            },
            {
              "internalType": "uint256",
              "name": "amountToFeesCollector",
              "type": "uint256"
            }
          ],
          "internalType": "struct Posts.MintParams",
          "name": "params",
          "type": "tuple"
        }
      ],
      "name": "mint",
      "outputs": [],
      "stateMutability": "nonpayable",
      "type": "function"
    },
    {
      "inputs": [],
      "name": "owner",
      "outputs": [
        {
          "internalType": "address",
          "name": "",
          "type": "address"
        }
      ],
      "stateMutability": "view",
      "type": "function"
    },
    {
      "inputs": [],
      "name": "renounceOwnership",
      "outputs": [],
      "stateMutability": "nonpayable",
      "type": "function"
    },
    {
      "inputs": [
        {
          "internalType": "string",
          "name": "id",
          "type": "string"
        },
        {
          "internalType": "address",
          "name": "paymentToken",
          "type": "address"
        },
        {
          "internalType": "uint256",
          "name": "amount",
          "type": "uint256"
        }
      ],
      "name": "requestMint",
      "outputs": [],
      "stateMutability": "nonpayable",
      "type": "function"
    },
    {
      "inputs": [
        {
          "internalType": "string",
          "name": "id",
          "type": "string"
        }
      ],
      "name": "requestMintNative",
      "outputs": [],
      "stateMutability": "payable",
      "type": "function"
    },
    {
      "inputs": [
        {
          "internalType": "address",
          "name": "from",
          "type": "address"
        },
        {
          "internalType": "address",
          "name": "to",
          "type": "address"
        },
        {
          "internalType": "uint256[]",
          "name": "ids",
          "type": "uint256[]"
        },
        {
          "internalType": "uint256[]",
          "name": "amounts",
          "type": "uint256[]"
        },
        {
          "internalType": "bytes",
          "name": "data",
          "type": "bytes"
        }
      ],
      "name": "safeBatchTransferFrom",
      "outputs": [],
      "stateMutability": "nonpayable",
      "type": "function"
    },
    {
      "inputs": [
        {
          "internalType": "address",
          "name": "from",
          "type": "address"
        },
        {
          "internalType": "address",
          "name": "to",
          "type": "address"
        },
        {
          "internalType": "uint256",
          "name": "id",
          "type": "uint256"
        },
        {
          "internalType": "uint256",
          "name": "amount",
          "type": "uint256"
        },
        {
          "internalType": "bytes",
          "name": "data",
          "type": "bytes"
        }
      ],
      "name": "safeTransferFrom",
      "outputs": [],
      "stateMutability": "nonpayable",
      "type": "function"
    },
    {
      "inputs": [
        {
          "internalType": "address",
          "name": "operator",
          "type": "address"
        },
        {
          "internalType": "bool",
          "name": "approved",
          "type": "bool"
        }
      ],
      "name": "setApprovalForAll",
      "outputs": [],
      "stateMutability": "nonpayable",
      "type": "function"
    },
    {
      "inputs": [
        {
          "internalType": "address",
          "name": "account",
          "type": "address"
        },
        {
          "internalType": "address",
          "name": "asset",
          "type": "address"
        }
      ],
      "name": "supplied",
      "outputs": [
        {
          "internalType": "uint256",
          "name": "",
          "type": "uint256"
        }
      ],
      "stateMutability": "view",
      "type": "function"
    },
    {
      "inputs": [
        {
          "internalType": "bytes4",
          "name": "interfaceId",
          "type": "bytes4"
        }
      ],
      "name": "supportsInterface",
      "outputs": [
        {
          "internalType": "bool",
          "name": "",
          "type": "bool"
        }
      ],
      "stateMutability": "view",
      "type": "function"
    },
    {
      "inputs": [
        {
          "internalType": "address",
          "name": "newOwner",
          "type": "address"
        }
      ],
      "name": "transferOwnership",
      "outputs": [],
      "stateMutability": "nonpayable",
      "type": "function"
    },
    {
      "inputs": [
        {
          "internalType": "uint256",
          "name": "id",
          "type": "uint256"
        }
      ],
      "name": "uri",
      "outputs": [
        {
          "internalType": "string",
          "name": "",
          "type": "string"
        }
      ],
      "stateMutability": "view",
      "type": "function"
    },
    {
      "inputs": [
        {
          "internalType": "address",
          "name": "asset",
          "type": "address"
        },
        {
          "internalType": "uint256",
          "name": "amount",
          "type": "uint256"
        }
      ],
      "name": "withdraw",
      "outputs": [],
      "stateMutability": "nonpayable",
      "type": "function"
    }
  ],
  "bytecode": "0x60806040523480156200001157600080fd5b506040516200462238038062004622833981810160405281019062000037919062000265565b620000576200004b6200007760201b60201c565b6200007f60201b60201c565b80600790805190602001906200006f92919062000143565b50506200041a565b600033905090565b60008060009054906101000a900473ffffffffffffffffffffffffffffffffffffffff169050816000806101000a81548173ffffffffffffffffffffffffffffffffffffffff021916908373ffffffffffffffffffffffffffffffffffffffff1602179055508173ffffffffffffffffffffffffffffffffffffffff168173ffffffffffffffffffffffffffffffffffffffff167f8be0079c531659141344cd1fd0a4f28419497f9722a3daafe3b4186f6b6457e060405160405180910390a35050565b82805462000151906200033f565b90600052602060002090601f016020900481019282620001755760008555620001c1565b82601f106200019057805160ff1916838001178555620001c1565b82800160010185558215620001c1579182015b82811115620001c0578251825591602001919060010190620001a3565b5b509050620001d09190620001d4565b5090565b5b80821115620001ef576000816000905550600101620001d5565b5090565b60006200020a6200020484620002d3565b620002aa565b9050828152602081018484840111156200022357600080fd5b6200023084828562000309565b509392505050565b600082601f8301126200024a57600080fd5b81516200025c848260208601620001f3565b91505092915050565b6000602082840312156200027857600080fd5b600082015167ffffffffffffffff8111156200029357600080fd5b620002a18482850162000238565b91505092915050565b6000620002b6620002c9565b9050620002c4828262000375565b919050565b6000604051905090565b600067ffffffffffffffff821115620002f157620002f0620003da565b5b620002fc8262000409565b9050602081019050919050565b60005b83811015620003295780820151818401526020810190506200030c565b8381111562000339576000848401525b50505050565b600060028204905060018216806200035857607f821691505b602082108114156200036f576200036e620003ab565b5b50919050565b620003808262000409565b810181811067ffffffffffffffff82111715620003a257620003a1620003da565b5b80604052505050565b7f4e487b7100000000000000000000000000000000000000000000000000000000600052602260045260246000fd5b7f4e487b7100000000000000000000000000000000000000000000000000000000600052604160045260246000fd5b6000601f19601f8301169050919050565b6141f8806200042a6000396000f3fe6080604052600436106100fd5760003560e01c8063656b833411610095578063a22cb46511610064578063a22cb46514610335578063e985e9c51461035e578063f242432a1461039b578063f2fde38b146103c4578063f3fef3a3146103ed576100fd565b8063656b8334146102a1578063715018a6146102ca57806376c33ade146102e15780638da5cb5b1461030a576100fd565b80631f655b69116100d15780631f655b69146101e25780632eb2c2d61461021f5780634e1273f4146102485780635133a21314610285576100fd565b8062fdd58e1461010257806301ffc9a71461013f5780630e89341c1461017c57806311123371146101b9575b600080fd5b34801561010e57600080fd5b5061012960048036038101906101249190612bb8565b610416565b6040516101369190613760565b60405180910390f35b34801561014b57600080fd5b5061016660048036038101906101619190612cce565b6104e0565b60405161017391906134b1565b60405180910390f35b34801561018857600080fd5b506101a3600480360381019061019e9190612e12565b6105c2565b6040516101b091906134fe565b60405180910390f35b3480156101c557600080fd5b506101e060048036038101906101db9190612d65565b610600565b005b3480156101ee57600080fd5b50610209600480360381019061020491906129f2565b6106a9565b6040516102169190613760565b60405180910390f35b34801561022b57600080fd5b5061024660048036038101906102419190612a2e565b610730565b005b34801561025457600080fd5b5061026f600480360381019061026a9190612bf4565b6107d1565b60405161027c9190613458565b60405180910390f35b61029f600480360381019061029a9190612d20565b610982565b005b3480156102ad57600080fd5b506102c860048036038101906102c39190612dd1565b610993565b005b3480156102d657600080fd5b506102df610a1b565b005b3480156102ed57600080fd5b5061030860048036038101906103039190612c60565b610aa3565b005b34801561031657600080fd5b5061031f610b9c565b60405161032c919061331b565b60405180910390f35b34801561034157600080fd5b5061035c60048036038101906103579190612b7c565b610bc5565b005b34801561036a57600080fd5b50610385600480360381019061038091906129f2565b610bdb565b60405161039291906134b1565b60405180910390f35b3480156103a757600080fd5b506103c260048036038101906103bd9190612aed565b610c6f565b005b3480156103d057600080fd5b506103eb60048036038101906103e691906129c9565b610d10565b005b3480156103f957600080fd5b50610414600480360381019061040f9190612bb8565b610e08565b005b60008073ffffffffffffffffffffffffffffffffffffffff168373ffffffffffffffffffffffffffffffffffffffff161415610487576040517f08c379a000000000000000000000000000000000000000000000000000000000815260040161047e906136a0565b60405180910390fd5b6001600083815260200190815260200160002060008473ffffffffffffffffffffffffffffffffffffffff1673ffffffffffffffffffffffffffffffffffffffff16815260200190815260200160002054905092915050565b60007fd9b67a26000000000000000000000000000000000000000000000000000000007bffffffffffffffffffffffffffffffffffffffffffffffffffffffff1916827bffffffffffffffffffffffffffffffffffffffffffffffffffffffff191614806105ab57507f0e89341c000000000000000000000000000000000000000000000000000000007bffffffffffffffffffffffffffffffffffffffffffffffffffffffff1916827bffffffffffffffffffffffffffffffffffffffffffffffffffffffff1916145b806105bb57506105ba8261104d565b5b9050919050565b60606007600560008481526020019081526020016000206040516020016105ea9291906132c9565b6040516020818303038152906040529050919050565b8173ffffffffffffffffffffffffffffffffffffffff166323b872dd6106246110b7565b30846040518463ffffffff1660e01b81526004016106449392919061339e565b602060405180830381600087803b15801561065e57600080fd5b505af1158015610672573d6000803e3d6000fd5b505050506040513d601f19601f820116820180604052508101906106969190612ca5565b506106a3848484846110bf565b50505050565b6000600360008473ffffffffffffffffffffffffffffffffffffffff1673ffffffffffffffffffffffffffffffffffffffff16815260200190815260200160002060008373ffffffffffffffffffffffffffffffffffffffff1673ffffffffffffffffffffffffffffffffffffffff16815260200190815260200160002054905092915050565b6107386110b7565b73ffffffffffffffffffffffffffffffffffffffff168573ffffffffffffffffffffffffffffffffffffffff16148061077e575061077d856107786110b7565b610bdb565b5b6107bd576040517f08c379a00000000000000000000000000000000000000000000000000000000081526004016107b490613620565b60405180910390fd5b6107ca8585858585611307565b5050505050565b60608151835114610817576040517f08c379a000000000000000000000000000000000000000000000000000000000815260040161080e90613700565b60405180910390fd5b6000835167ffffffffffffffff81111561085a577f4e487b7100000000000000000000000000000000000000000000000000000000600052604160045260246000fd5b6040519080825280602002602001820160405280156108885781602001602082028036833780820191505090505b50905060005b8451811015610977576109218582815181106108d3577f4e487b7100000000000000000000000000000000000000000000000000000000600052603260045260246000fd5b6020026020010151858381518110610914577f4e487b7100000000000000000000000000000000000000000000000000000000600052603260045260246000fd5b6020026020010151610416565b82828151811061095a577f4e487b7100000000000000000000000000000000000000000000000000000000600052603260045260246000fd5b6020026020010181815250508061097090613b0d565b905061088e565b508091505092915050565b61098f82826000346110bf565b5050565b61099b6110b7565b73ffffffffffffffffffffffffffffffffffffffff166109b9610b9c565b73ffffffffffffffffffffffffffffffffffffffff1614610a0f576040517f08c379a0000000000000000000000000000000000000000000000000000000008152600401610a0690613640565b60405180910390fd5b610a188161165c565b50565b610a236110b7565b73ffffffffffffffffffffffffffffffffffffffff16610a41610b9c565b73ffffffffffffffffffffffffffffffffffffffff1614610a97576040517f08c379a0000000000000000000000000000000000000000000000000000000008152600401610a8e90613640565b60405180910390fd5b610aa16000611b6f565b565b610aab6110b7565b73ffffffffffffffffffffffffffffffffffffffff16610ac9610b9c565b73ffffffffffffffffffffffffffffffffffffffff1614610b1f576040517f08c379a0000000000000000000000000000000000000000000000000000000008152600401610b1690613640565b60405180910390fd5b600082829050905060005b81811015610b9657610b85848483818110610b6e577f4e487b7100000000000000000000000000000000000000000000000000000000600052603260045260246000fd5b9050602002810190610b8091906137fb565b61165c565b80610b8f90613b0d565b9050610b2a565b50505050565b60008060009054906101000a900473ffffffffffffffffffffffffffffffffffffffff16905090565b610bd7610bd06110b7565b8383611c33565b5050565b6000600260008473ffffffffffffffffffffffffffffffffffffffff1673ffffffffffffffffffffffffffffffffffffffff16815260200190815260200160002060008373ffffffffffffffffffffffffffffffffffffffff1673ffffffffffffffffffffffffffffffffffffffff16815260200190815260200160002060009054906101000a900460ff16905092915050565b610c776110b7565b73ffffffffffffffffffffffffffffffffffffffff168573ffffffffffffffffffffffffffffffffffffffff161480610cbd5750610cbc85610cb76110b7565b610bdb565b5b610cfc576040517f08c379a0000000000000000000000000000000000000000000000000000000008152600401610cf390613600565b60405180910390fd5b610d098585858585611da0565b5050505050565b610d186110b7565b73ffffffffffffffffffffffffffffffffffffffff16610d36610b9c565b73ffffffffffffffffffffffffffffffffffffffff1614610d8c576040517f08c379a0000000000000000000000000000000000000000000000000000000008152600401610d8390613640565b60405180910390fd5b600073ffffffffffffffffffffffffffffffffffffffff168173ffffffffffffffffffffffffffffffffffffffff161415610dfc576040517f08c379a0000000000000000000000000000000000000000000000000000000008152600401610df390613560565b60405180910390fd5b610e0581611b6f565b50565b8060036000610e156110b7565b73ffffffffffffffffffffffffffffffffffffffff1673ffffffffffffffffffffffffffffffffffffffff16815260200190815260200160002060008473ffffffffffffffffffffffffffffffffffffffff1673ffffffffffffffffffffffffffffffffffffffff168152602001908152602001600020541015610ece576040517f08c379a0000000000000000000000000000000000000000000000000000000008152600401610ec590613720565b60405180910390fd5b600073ffffffffffffffffffffffffffffffffffffffff168273ffffffffffffffffffffffffffffffffffffffff161415610f1957610f14610f0e6110b7565b82612007565b610faf565b8173ffffffffffffffffffffffffffffffffffffffff1663a9059cbb610f3d6110b7565b836040518363ffffffff1660e01b8152600401610f5b92919061342f565b602060405180830381600087803b158015610f7557600080fd5b505af1158015610f89573d6000803e3d6000fd5b505050506040513d601f19601f82011682018060405250810190610fad9190612ca5565b505b8060036000610fbc6110b7565b73ffffffffffffffffffffffffffffffffffffffff1673ffffffffffffffffffffffffffffffffffffffff16815260200190815260200160002060008473ffffffffffffffffffffffffffffffffffffffff1673ffffffffffffffffffffffffffffffffffffffff168152602001908152602001600020600082825461104291906139c0565b925050819055505050565b60007f01ffc9a7000000000000000000000000000000000000000000000000000000007bffffffffffffffffffffffffffffffffffffffffffffffffffffffff1916827bffffffffffffffffffffffffffffffffffffffffffffffffffffffff1916149050919050565b600033905090565b600060028111156110f9577f4e487b7100000000000000000000000000000000000000000000000000000000600052602160045260246000fd5b6006858560405161110b9291906132ed565b908152602001604051809103902060009054906101000a900460ff16600281111561115f577f4e487b7100000000000000000000000000000000000000000000000000000000600052602160045260246000fd5b1461119f576040517f08c379a000000000000000000000000000000000000000000000000000000000815260040161119690613520565b60405180910390fd5b80600360006111ac6110b7565b73ffffffffffffffffffffffffffffffffffffffff1673ffffffffffffffffffffffffffffffffffffffff16815260200190815260200160002060008473ffffffffffffffffffffffffffffffffffffffff1673ffffffffffffffffffffffffffffffffffffffff1681526020019081526020016000206000828254611232919061396a565b9250508190555060016006858560405161124d9291906132ed565b908152602001604051809103902060006101000a81548160ff021916908360028111156112a3577f4e487b7100000000000000000000000000000000000000000000000000000000600052602160045260246000fd5b02179055506112b06110b7565b73ffffffffffffffffffffffffffffffffffffffff167f9371be089823c1008ecc92cc16c2867383825a49ad9552f5fb253c7dcf7d7a6a8585856040516112f9939291906134cc565b60405180910390a250505050565b815183511461134b576040517f08c379a0000000000000000000000000000000000000000000000000000000008152600401611342906136c0565b60405180910390fd5b600073ffffffffffffffffffffffffffffffffffffffff168473ffffffffffffffffffffffffffffffffffffffff1614156113bb576040517f08c379a00000000000000000000000000000000000000000000000000000000081526004016113b290613660565b60405180910390fd5b60006113c56110b7565b905060005b84518110156115c757600085828151811061140e577f4e487b7100000000000000000000000000000000000000000000000000000000600052603260045260246000fd5b602002602001015190506000858381518110611453577f4e487b7100000000000000000000000000000000000000000000000000000000600052603260045260246000fd5b6020026020010151905060006001600084815260200190815260200160002060008b73ffffffffffffffffffffffffffffffffffffffff1673ffffffffffffffffffffffffffffffffffffffff168152602001908152602001600020549050818110156114f5576040517f08c379a00000000000000000000000000000000000000000000000000000000081526004016114ec90613540565b60405180910390fd5b8181036001600085815260200190815260200160002060008c73ffffffffffffffffffffffffffffffffffffffff1673ffffffffffffffffffffffffffffffffffffffff16815260200190815260200160002081905550816001600085815260200190815260200160002060008b73ffffffffffffffffffffffffffffffffffffffff1673ffffffffffffffffffffffffffffffffffffffff16815260200190815260200160002060008282546115ac919061396a565b92505081905550505050806115c090613b0d565b90506113ca565b508473ffffffffffffffffffffffffffffffffffffffff168673ffffffffffffffffffffffffffffffffffffffff168273ffffffffffffffffffffffffffffffffffffffff167f4a39dc06d4c0dbc64b70af90fd698a233a518aa5d07e595d983b8c0526c8f7fb878760405161163e92919061347a565b60405180910390a46116548187878787876120fb565b505050505050565b60016002811115611696577f4e487b7100000000000000000000000000000000000000000000000000000000600052602160045260246000fd5b60068280600001906116a891906137a4565b6040516116b69291906132ed565b908152602001604051809103902060009054906101000a900460ff16600281111561170a577f4e487b7100000000000000000000000000000000000000000000000000000000600052602160045260246000fd5b1461174a576040517f08c379a0000000000000000000000000000000000000000000000000000000008152600401611741906135c0565b60405180910390fd5b8060e001358160a0013561175e919061396a565b6003600083606001602081019061177591906129c9565b73ffffffffffffffffffffffffffffffffffffffff1673ffffffffffffffffffffffffffffffffffffffff16815260200190815260200160002060008360400160208101906117c491906129c9565b73ffffffffffffffffffffffffffffffffffffffff1673ffffffffffffffffffffffffffffffffffffffff1681526020019081526020016000205410611aee57600073ffffffffffffffffffffffffffffffffffffffff1681604001602081019061182f91906129c9565b73ffffffffffffffffffffffffffffffffffffffff1614156118905761186b81608001602081019061186191906129c9565b8260a00135612007565b61188b8160c001602081019061188191906129c9565b8260e00135612007565b6119f1565b60008160400160208101906118a591906129c9565b90508073ffffffffffffffffffffffffffffffffffffffff1663a9059cbb8360800160208101906118d691906129c9565b8460a001356040518363ffffffff1660e01b81526004016118f892919061342f565b602060405180830381600087803b15801561191257600080fd5b505af1158015611926573d6000803e3d6000fd5b505050506040513d601f19601f8201168201806040525081019061194a9190612ca5565b508073ffffffffffffffffffffffffffffffffffffffff1663a9059cbb8360c001602081019061197a91906129c9565b8460e001356040518363ffffffff1660e01b815260040161199c92919061342f565b602060405180830381600087803b1580156119b657600080fd5b505af11580156119ca573d6000803e3d6000fd5b505050506040513d601f19601f820116820180604052508101906119ee9190612ca5565b50505b808060200190611a0191906137a4565b6005600060045481526020019081526020016000209190611a23929190612664565b50611a54816060016020810190611a3a91906129c9565b6004546001604051806020016040528060008152506122e2565b60026006828060000190611a6891906137a4565b604051611a769291906132ed565b908152602001604051809103902060006101000a81548160ff02191690836002811115611acc577f4e487b7100000000000000000000000000000000000000000000000000000000600052602160045260246000fd5b021790555060046000815480929190611ae490613b0d565b9190505550611b6c565b60006006828060000190611b0291906137a4565b604051611b109291906132ed565b908152602001604051809103902060006101000a81548160ff02191690836002811115611b66577f4e487b7100000000000000000000000000000000000000000000000000000000600052602160045260246000fd5b02179055505b50565b60008060009054906101000a900473ffffffffffffffffffffffffffffffffffffffff169050816000806101000a81548173ffffffffffffffffffffffffffffffffffffffff021916908373ffffffffffffffffffffffffffffffffffffffff1602179055508173ffffffffffffffffffffffffffffffffffffffff168173ffffffffffffffffffffffffffffffffffffffff167f8be0079c531659141344cd1fd0a4f28419497f9722a3daafe3b4186f6b6457e060405160405180910390a35050565b8173ffffffffffffffffffffffffffffffffffffffff168373ffffffffffffffffffffffffffffffffffffffff161415611ca2576040517f08c379a0000000000000000000000000000000000000000000000000000000008152600401611c99906135e0565b60405180910390fd5b80600260008573ffffffffffffffffffffffffffffffffffffffff1673ffffffffffffffffffffffffffffffffffffffff16815260200190815260200160002060008473ffffffffffffffffffffffffffffffffffffffff1673ffffffffffffffffffffffffffffffffffffffff16815260200190815260200160002060006101000a81548160ff0219169083151502179055508173ffffffffffffffffffffffffffffffffffffffff168373ffffffffffffffffffffffffffffffffffffffff167f17307eab39ab6107e8899845ad3d59bd9653f200f220920489ca2b5937696c3183604051611d9391906134b1565b60405180910390a3505050565b600073ffffffffffffffffffffffffffffffffffffffff168473ffffffffffffffffffffffffffffffffffffffff161415611e10576040517f08c379a0000000000000000000000000000000000000000000000000000000008152600401611e0790613660565b60405180910390fd5b6000611e1a6110b7565b905060006001600086815260200190815260200160002060008873ffffffffffffffffffffffffffffffffffffffff1673ffffffffffffffffffffffffffffffffffffffff16815260200190815260200160002054905083811015611eb4576040517f08c379a0000000000000000000000000000000000000000000000000000000008152600401611eab90613540565b60405180910390fd5b8381036001600087815260200190815260200160002060008973ffffffffffffffffffffffffffffffffffffffff1673ffffffffffffffffffffffffffffffffffffffff16815260200190815260200160002081905550836001600087815260200190815260200160002060008873ffffffffffffffffffffffffffffffffffffffff1673ffffffffffffffffffffffffffffffffffffffff1681526020019081526020016000206000828254611f6b919061396a565b925050819055508573ffffffffffffffffffffffffffffffffffffffff168773ffffffffffffffffffffffffffffffffffffffff168373ffffffffffffffffffffffffffffffffffffffff167fc3d58168c5ae7397731d063d5bbf3d657854427343f4c083240f7aacaa2d0f628888604051611fe892919061377b565b60405180910390a4611ffe82888888888861245a565b50505050505050565b8047101561204a576040517f08c379a0000000000000000000000000000000000000000000000000000000008152600401612041906135a0565b60405180910390fd5b60008273ffffffffffffffffffffffffffffffffffffffff168260405161207090613306565b60006040518083038185875af1925050503d80600081146120ad576040519150601f19603f3d011682016040523d82523d6000602084013e6120b2565b606091505b50509050806120f6576040517f08c379a00000000000000000000000000000000000000000000000000000000081526004016120ed90613580565b60405180910390fd5b505050565b61211a8473ffffffffffffffffffffffffffffffffffffffff16612641565b156122da578373ffffffffffffffffffffffffffffffffffffffff1663bc197c8187878686866040518663ffffffff1660e01b8152600401612160959493929190613336565b602060405180830381600087803b15801561217a57600080fd5b505af19250505080156121ab57506040513d601f19601f820116820180604052508101906121a89190612cf7565b60015b612251576121b7613be3565b806308c379a0141561221457506121cc6140d0565b806121d75750612216565b806040517f08c379a000000000000000000000000000000000000000000000000000000000815260040161220b91906134fe565b60405180910390fd5b505b6040517f08c379a0000000000000000000000000000000000000000000000000000000008152600401612248906136e0565b60405180910390fd5b63bc197c8160e01b7bffffffffffffffffffffffffffffffffffffffffffffffffffffffff1916817bffffffffffffffffffffffffffffffffffffffffffffffffffffffff1916146122d8576040517f08c379a00000000000000000000000000000000000000000000000000000000081526004016122cf90613740565b60405180910390fd5b505b505050505050565b600073ffffffffffffffffffffffffffffffffffffffff168473ffffffffffffffffffffffffffffffffffffffff161415612352576040517f08c379a000000000000000000000000000000000000000000000000000000000815260040161234990613680565b60405180910390fd5b600061235c6110b7565b9050826001600086815260200190815260200160002060008773ffffffffffffffffffffffffffffffffffffffff1673ffffffffffffffffffffffffffffffffffffffff16815260200190815260200160002060008282546123be919061396a565b925050819055508473ffffffffffffffffffffffffffffffffffffffff16600073ffffffffffffffffffffffffffffffffffffffff168273ffffffffffffffffffffffffffffffffffffffff167fc3d58168c5ae7397731d063d5bbf3d657854427343f4c083240f7aacaa2d0f62878760405161243c92919061377b565b60405180910390a46124538160008787878761245a565b5050505050565b6124798473ffffffffffffffffffffffffffffffffffffffff16612641565b15612639578373ffffffffffffffffffffffffffffffffffffffff1663f23a6e6187878686866040518663ffffffff1660e01b81526004016124bf9594939291906133d5565b602060405180830381600087803b1580156124d957600080fd5b505af192505050801561250a57506040513d601f19601f820116820180604052508101906125079190612cf7565b60015b6125b057612516613be3565b806308c379a01415612573575061252b6140d0565b806125365750612575565b806040517f08c379a000000000000000000000000000000000000000000000000000000000815260040161256a91906134fe565b60405180910390fd5b505b6040517f08c379a00000000000000000000000000000000000000000000000000000000081526004016125a7906136e0565b60405180910390fd5b63f23a6e6160e01b7bffffffffffffffffffffffffffffffffffffffffffffffffffffffff1916817bffffffffffffffffffffffffffffffffffffffffffffffffffffffff191614612637576040517f08c379a000000000000000000000000000000000000000000000000000000000815260040161262e90613740565b60405180910390fd5b505b505050505050565b6000808273ffffffffffffffffffffffffffffffffffffffff163b119050919050565b82805461267090613aaa565b90600052602060002090601f01602090048101928261269257600085556126d9565b82601f106126ab57803560ff19168380011785556126d9565b828001600101855582156126d9579182015b828111156126d85782358255916020019190600101906126bd565b5b5090506126e691906126ea565b5090565b5b808211156127035760008160009055506001016126eb565b5090565b600061271a61271584613845565b613820565b9050808382526020820190508285602086028201111561273957600080fd5b60005b85811015612769578161274f888261281d565b84526020840193506020830192505060018101905061273c565b5050509392505050565b600061278661278184613871565b613820565b905080838252602082019050828560208602820111156127a557600080fd5b60005b858110156127d557816127bb88826129b4565b8452602084019350602083019250506001810190506127a8565b5050509392505050565b60006127f26127ed8461389d565b613820565b90508281526020810184848401111561280a57600080fd5b612815848285613a68565b509392505050565b60008135905061282c81614166565b92915050565b600082601f83011261284357600080fd5b8135612853848260208601612707565b91505092915050565b60008083601f84011261286e57600080fd5b8235905067ffffffffffffffff81111561288757600080fd5b60208301915083602082028301111561289f57600080fd5b9250929050565b600082601f8301126128b757600080fd5b81356128c7848260208601612773565b91505092915050565b6000813590506128df8161417d565b92915050565b6000815190506128f48161417d565b92915050565b60008135905061290981614194565b92915050565b60008151905061291e81614194565b92915050565b600082601f83011261293557600080fd5b81356129458482602086016127df565b91505092915050565b60008083601f84011261296057600080fd5b8235905067ffffffffffffffff81111561297957600080fd5b60208301915083600182028301111561299157600080fd5b9250929050565b600061010082840312156129ab57600080fd5b81905092915050565b6000813590506129c3816141ab565b92915050565b6000602082840312156129db57600080fd5b60006129e98482850161281d565b91505092915050565b60008060408385031215612a0557600080fd5b6000612a138582860161281d565b9250506020612a248582860161281d565b9150509250929050565b600080600080600060a08688031215612a4657600080fd5b6000612a548882890161281d565b9550506020612a658882890161281d565b945050604086013567ffffffffffffffff811115612a8257600080fd5b612a8e888289016128a6565b935050606086013567ffffffffffffffff811115612aab57600080fd5b612ab7888289016128a6565b925050608086013567ffffffffffffffff811115612ad457600080fd5b612ae088828901612924565b9150509295509295909350565b600080600080600060a08688031215612b0557600080fd5b6000612b138882890161281d565b9550506020612b248882890161281d565b9450506040612b35888289016129b4565b9350506060612b46888289016129b4565b925050608086013567ffffffffffffffff811115612b6357600080fd5b612b6f88828901612924565b9150509295509295909350565b60008060408385031215612b8f57600080fd5b6000612b9d8582860161281d565b9250506020612bae858286016128d0565b9150509250929050565b60008060408385031215612bcb57600080fd5b6000612bd98582860161281d565b9250506020612bea858286016129b4565b9150509250929050565b60008060408385031215612c0757600080fd5b600083013567ffffffffffffffff811115612c2157600080fd5b612c2d85828601612832565b925050602083013567ffffffffffffffff811115612c4a57600080fd5b612c56858286016128a6565b9150509250929050565b60008060208385031215612c7357600080fd5b600083013567ffffffffffffffff811115612c8d57600080fd5b612c998582860161285c565b92509250509250929050565b600060208284031215612cb757600080fd5b6000612cc5848285016128e5565b91505092915050565b600060208284031215612ce057600080fd5b6000612cee848285016128fa565b91505092915050565b600060208284031215612d0957600080fd5b6000612d178482850161290f565b91505092915050565b60008060208385031215612d3357600080fd5b600083013567ffffffffffffffff811115612d4d57600080fd5b612d598582860161294e565b92509250509250929050565b60008060008060608587031215612d7b57600080fd5b600085013567ffffffffffffffff811115612d9557600080fd5b612da18782880161294e565b94509450506020612db48782880161281d565b9250506040612dc5878288016129b4565b91505092959194509250565b600060208284031215612de357600080fd5b600082013567ffffffffffffffff811115612dfd57600080fd5b612e0984828501612998565b91505092915050565b600060208284031215612e2457600080fd5b6000612e32848285016129b4565b91505092915050565b6000612e4783836132ab565b60208301905092915050565b612e5c816139f4565b82525050565b6000612e6d826138f3565b612e778185613921565b9350612e82836138ce565b8060005b83811015612eb3578151612e9a8882612e3b565b9750612ea583613914565b925050600181019050612e86565b5085935050505092915050565b612ec981613a06565b82525050565b6000612eda826138fe565b612ee48185613932565b9350612ef4818560208601613a77565b612efd81613c05565b840191505092915050565b60008154612f1581613aaa565b612f1f8186613943565b94506001821660008114612f3a5760018114612f4b57612f7e565b60ff19831686528186019350612f7e565b612f54856138de565b60005b83811015612f7657815481890152600182019150602081019050612f57565b838801955050505b50505092915050565b6000612f93838561394e565b9350612fa0838584613a68565b612fa983613c05565b840190509392505050565b6000612fc0838561395f565b9350612fcd838584613a68565b82840190509392505050565b6000612fe482613909565b612fee818561394e565b9350612ffe818560208601613a77565b61300781613c05565b840191505092915050565b600061301f60148361394e565b915061302a82613c23565b602082019050919050565b600061304260288361394e565b915061304d82613c4c565b604082019050919050565b600061306560268361394e565b915061307082613c9b565b604082019050919050565b6000613088603a8361394e565b915061309382613cea565b604082019050919050565b60006130ab601d8361394e565b91506130b682613d39565b602082019050919050565b60006130ce60128361394e565b91506130d982613d62565b602082019050919050565b60006130f160278361394e565b91506130fc82613d8b565b604082019050919050565b600061311460278361394e565b915061311f82613dda565b604082019050919050565b600061313760308361394e565b915061314282613e29565b604082019050919050565b600061315a60208361394e565b915061316582613e78565b602082019050919050565b600061317d60238361394e565b915061318882613ea1565b604082019050919050565b60006131a0601f8361394e565b91506131ab82613ef0565b602082019050919050565b60006131c360298361394e565b91506131ce82613f19565b604082019050919050565b60006131e660268361394e565b91506131f182613f68565b604082019050919050565b600061320960328361394e565b915061321482613fb7565b604082019050919050565b600061322c600083613943565b915061323782614006565b600082019050919050565b600061324f60278361394e565b915061325a82614009565b604082019050919050565b600061327260178361394e565b915061327d82614058565b602082019050919050565b600061329560268361394e565b91506132a082614081565b604082019050919050565b6132b481613a5e565b82525050565b6132c381613a5e565b82525050565b60006132d58285612f08565b91506132e18284612f08565b91508190509392505050565b60006132fa828486612fb4565b91508190509392505050565b60006133118261321f565b9150819050919050565b60006020820190506133306000830184612e53565b92915050565b600060a08201905061334b6000830188612e53565b6133586020830187612e53565b818103604083015261336a8186612e62565b9050818103606083015261337e8185612e62565b905081810360808301526133928184612ecf565b90509695505050505050565b60006060820190506133b36000830186612e53565b6133c06020830185612e53565b6133cd60408301846132ba565b949350505050565b600060a0820190506133ea6000830188612e53565b6133f76020830187612e53565b61340460408301866132ba565b61341160608301856132ba565b81810360808301526134238184612ecf565b90509695505050505050565b60006040820190506134446000830185612e53565b61345160208301846132ba565b9392505050565b600060208201905081810360008301526134728184612e62565b905092915050565b600060408201905081810360008301526134948185612e62565b905081810360208301526134a88184612e62565b90509392505050565b60006020820190506134c66000830184612ec0565b92915050565b600060408201905081810360008301526134e7818587612f87565b90506134f66020830184612e53565b949350505050565b600060208201905081810360008301526135188184612fd9565b905092915050565b6000602082019050818103600083015261353981613012565b9050919050565b6000602082019050818103600083015261355981613035565b9050919050565b6000602082019050818103600083015261357981613058565b9050919050565b600060208201905081810360008301526135998161307b565b9050919050565b600060208201905081810360008301526135b98161309e565b9050919050565b600060208201905081810360008301526135d9816130c1565b9050919050565b600060208201905081810360008301526135f9816130e4565b9050919050565b6000602082019050818103600083015261361981613107565b9050919050565b600060208201905081810360008301526136398161312a565b9050919050565b600060208201905081810360008301526136598161314d565b9050919050565b6000602082019050818103600083015261367981613170565b9050919050565b6000602082019050818103600083015261369981613193565b9050919050565b600060208201905081810360008301526136b9816131b6565b9050919050565b600060208201905081810360008301526136d9816131d9565b9050919050565b600060208201905081810360008301526136f9816131fc565b9050919050565b6000602082019050818103600083015261371981613242565b9050919050565b6000602082019050818103600083015261373981613265565b9050919050565b6000602082019050818103600083015261375981613288565b9050919050565b600060208201905061377560008301846132ba565b92915050565b600060408201905061379060008301856132ba565b61379d60208301846132ba565b9392505050565b600080833560016020038436030381126137bd57600080fd5b80840192508235915067ffffffffffffffff8211156137db57600080fd5b6020830192506001820236038313156137f357600080fd5b509250929050565b6000823560016101000383360303811261381457600080fd5b80830191505092915050565b600061382a61383b565b90506138368282613adc565b919050565b6000604051905090565b600067ffffffffffffffff8211156138605761385f613bb4565b5b602082029050602081019050919050565b600067ffffffffffffffff82111561388c5761388b613bb4565b5b602082029050602081019050919050565b600067ffffffffffffffff8211156138b8576138b7613bb4565b5b6138c182613c05565b9050602081019050919050565b6000819050602082019050919050565b60008190508160005260206000209050919050565b600081519050919050565b600081519050919050565b600081519050919050565b6000602082019050919050565b600082825260208201905092915050565b600082825260208201905092915050565b600081905092915050565b600082825260208201905092915050565b600081905092915050565b600061397582613a5e565b915061398083613a5e565b9250827fffffffffffffffffffffffffffffffffffffffffffffffffffffffffffffffff038211156139b5576139b4613b56565b5b828201905092915050565b60006139cb82613a5e565b91506139d683613a5e565b9250828210156139e9576139e8613b56565b5b828203905092915050565b60006139ff82613a3e565b9050919050565b60008115159050919050565b60007fffffffff0000000000000000000000000000000000000000000000000000000082169050919050565b600073ffffffffffffffffffffffffffffffffffffffff82169050919050565b6000819050919050565b82818337600083830152505050565b60005b83811015613a95578082015181840152602081019050613a7a565b83811115613aa4576000848401525b50505050565b60006002820490506001821680613ac257607f821691505b60208210811415613ad657613ad5613b85565b5b50919050565b613ae582613c05565b810181811067ffffffffffffffff82111715613b0457613b03613bb4565b5b80604052505050565b6000613b1882613a5e565b91507fffffffffffffffffffffffffffffffffffffffffffffffffffffffffffffffff821415613b4b57613b4a613b56565b5b600182019050919050565b7f4e487b7100000000000000000000000000000000000000000000000000000000600052601160045260246000fd5b7f4e487b7100000000000000000000000000000000000000000000000000000000600052602260045260246000fd5b7f4e487b7100000000000000000000000000000000000000000000000000000000600052604160045260246000fd5b600060033d1115613c025760046000803e613bff600051613c16565b90505b90565b6000601f19601f8301169050919050565b60008160e01c9050919050565b7f506f7374733a204e6f7420417661696c61626c65000000000000000000000000600082015250565b7f506f7374733a20696e73756666696369656e742062616c616e636520666f722060008201527f7472616e73666572000000000000000000000000000000000000000000000000602082015250565b7f4f776e61626c653a206e6577206f776e657220697320746865207a65726f206160008201527f6464726573730000000000000000000000000000000000000000000000000000602082015250565b7f416464726573733a20756e61626c6520746f2073656e642076616c75652c207260008201527f6563697069656e74206d61792068617665207265766572746564000000000000602082015250565b7f416464726573733a20696e73756666696369656e742062616c616e6365000000600082015250565b7f506f7374733a204e6f742050656e64696e670000000000000000000000000000600082015250565b7f506f7374733a2073657474696e6720617070726f76616c20737461747573206660008201527f6f722073656c6600000000000000000000000000000000000000000000000000602082015250565b7f506f7374733a2063616c6c6572206973206e6f74206f776e6572206e6f72206160008201527f7070726f76656400000000000000000000000000000000000000000000000000602082015250565b7f506f7374733a207472616e736665722063616c6c6572206973206e6f74206f7760008201527f6e6572206e6f7220617070726f76656400000000000000000000000000000000602082015250565b7f4f776e61626c653a2063616c6c6572206973206e6f7420746865206f776e6572600082015250565b7f506f7374733a207472616e7366657220746f20746865207a65726f206164647260008201527f6573730000000000000000000000000000000000000000000000000000000000602082015250565b7f506f7374733a206d696e7420746f20746865207a65726f206164647265737300600082015250565b7f506f7374733a2062616c616e636520717565727920666f7220746865207a657260008201527f6f20616464726573730000000000000000000000000000000000000000000000602082015250565b7f506f7374733a2069647320616e6420616d6f756e7473206c656e677468206d6960008201527f736d617463680000000000000000000000000000000000000000000000000000602082015250565b7f506f7374733a207472616e7366657220746f206e6f6e2045524331313535526560008201527f63656976657220696d706c656d656e7465720000000000000000000000000000602082015250565b50565b7f506f7374733a206163636f756e747320616e6420696473206c656e677468206d60008201527f69736d6174636800000000000000000000000000000000000000000000000000602082015250565b7f506f7374733a2050756c6c696e6720746f6f206d756368000000000000000000600082015250565b7f506f7374733a204552433131353552656365697665722072656a65637465642060008201527f746f6b656e730000000000000000000000000000000000000000000000000000602082015250565b600060443d10156140e057614163565b6140e861383b565b60043d036004823e80513d602482011167ffffffffffffffff82111715614110575050614163565b808201805167ffffffffffffffff81111561412e5750505050614163565b80602083010160043d03850181111561414b575050505050614163565b61415a82602001850186613adc565b82955050505050505b90565b61416f816139f4565b811461417a57600080fd5b50565b61418681613a06565b811461419157600080fd5b50565b61419d81613a12565b81146141a857600080fd5b50565b6141b481613a5e565b81146141bf57600080fd5b5056fea26469706673582212206d5778b0e8e7860e24c7821081e39167d5bc202da77b2ce987c69e769d1c4ed764736f6c63430008040033",
  "linkReferences": {},
  "deployedLinkReferences": {}
}